{"abi":[{"type":"function","name":"addToBlockchain","inputs":[{"name":"poolAddress","type":"address","internalType":"address"},{"name":"tokenAddress0","type":"address","internalType":"address"},{"name":"tokenAddress1","type":"address","internalType":"address"}],"outputs":[],"stateMutability":"nonpayable"},{"type":"function","name":"getAllTransactions","inputs":[],"outputs":[{"name":"","type":"tuple[]","internalType":"struct UserStorageData.TransactionStruck[]","components":[{"name":"caller","type":"address","internalType":"address"},{"name":"poolAddress","type":"address","internalType":"address"},{"name":"tokenAddress0","type":"address","internalType":"address"},{"name":"tokenAddress1","type":"address","internalType":"address"}]}],"stateMutability":"view"}],"bytecode":{"object":"0x608060405234801561001057600080fd5b5061031e806100206000396000f3fe608060405234801561001057600080fd5b50600436106100365760003560e01c806327506f531461003b578063890cb4e914610059575b600080fd5b61004361006e565b6040516100509190610274565b60405180910390f35b61006c610067366004610232565b610101565b005b60606000805480602002602001604051908101604052809291908181526020016000905b828210156100f8576000848152602090819020604080516080810182526004860290920180546001600160a01b03908116845260018083015482168587015260028301548216938501939093526003909101541660608301529083529092019101610092565b50505050905090565b604080516080810182523381526001600160a01b03948516602082019081529385169181019182529184166060830190815260008054600181018255908052925160049093027f290decd9548b62a8d60345a988386fc84ba6bc95484008f6362f93160ef3e563810180549487166001600160a01b031995861617905593517f290decd9548b62a8d60345a988386fc84ba6bc95484008f6362f93160ef3e5648501805491871691851691909117905590517f290decd9548b62a8d60345a988386fc84ba6bc95484008f6362f93160ef3e56584018054918616918416919091179055517f290decd9548b62a8d60345a988386fc84ba6bc95484008f6362f93160ef3e5669092018054929093169116179055565b80356001600160a01b038116811461022d57600080fd5b919050565b600080600060608486031215610246578283fd5b61024f84610216565b925061025d60208501610216565b915061026b60408501610216565b90509250925092565b602080825282518282018190526000919060409081850190868401855b828110156102db57815180516001600160a01b0390811686528782015181168887015286820151811687870152606091820151169085015260809093019290850190600101610291565b509197965050505050505056fea26469706673582212206d005a3a495db4854f8da1c16858e87382c1c8b78fb38d2c57a058391e34365064736f6c63430007060033","linkReferences":{}},"methodIdentifiers":{"addToBlockchain(address,address,address)":"890cb4e9","getAllTransactions()":"27506f53"},"id":70}